:020000040800F2
:10000000A804002005010008290100082B010008B0
:100010002D0100082F010008310100080000000038
:100020000000000000000000000000003301000894
:100030003501000800000000370100086D050008C8
:100040003B0100083B0100083B0100083B010008A0
:100050003B0100083B0100083B0100083B01000890
:100060003B0100083B0100083B0100083B01000880
:100070003B0100083B0100083B0100083B01000870
:100080003B0100083B0100083B0100083B01000860
:100090003B0100083B0100083B0100083B01000850
:1000A0003B010008850600083B01000879050008AF
:1000B0009D060008AD070008D90800083B010008AC
:1000C0003B0100083B0100083B0100083B01000820
:1000D0003B0100083B0100083B0100083B01000810
:1000E0003B0100083B0100083B010008DFF810D08D
:1000F00000F02EF800480047A10A0008AFF3008086
:10010000A80400200D488047DFF83400016841F45E
:10011000E0210160BFF34F8FDFF82800DFF82810DF
:1001200001600A4800477047FEE7FEE7FEE7FEE78A
:10013000FEE7FEE7FEE7FEE7FEE7FEE72701000831
:1001400024ED00E00CED00E00003FA05ED000008EE
:10015000064C074D06E0E06840F0010394E8070014
:1001600098471034AC42F6D3FFF7C4FFC80A000822
:10017000E80A00082DE9F041DFF8C4C0314B6045C2
:1001800003D19C6944F400649C614FF08046B04206
:1001900003D1DC6944F00104DC612B4DA84203D19A
:1001A000DC6944F00204DC61284FB84203D1DC6909
:1001B00044F00404DC61838943F0010383810F2947
:1001C00000D90F21224C4FF0E02360450CD1226171
:1001D000DFF880804FEA011C88F800C0D3F800C126
:1001E0004CF0007CC3F800C1B0420DD16261DFF871
:1001F00064C00E010CF1030C8CF80060D3F80061B0
:1002000046F08056C3F80061A8420AD1A261114E9F
:100210000D01361D3570D3F8005145F00055C3F877
:100220000051B8420AD1E26108010A49491D08702B
:10023000D3F8000140F08040C3F80001BDE8F08130
:10024000002C014000100240000400400008004063
:100250000000002019E400E070B5194C83202060F4
:1002600000256560A56017486060012000F044F833
:1002700061680843606014490D60086840F002003E
:100280000860206840F48030206020688003FCD53E
:10029000206840F08070206020688001FCD5606894
:1002A00020F003006060606840F0020060606068F9
:1002B00040F480006060086840F01000086070BD85
:1002C0000010024000841D000020024000487047DA
:1002D00000A24A040549064A884202D005498842DC
:1002E00001D110467047104670470000002C0140B5
:1002F00000A24A0400340140012804D0B0F5807FF8
:1003000003DD012102E000202CE00021802801DD36
:10031000012200E000220A44402801DD012100E022
:1003200000210A44102801DD012100E000210A44D7
:10033000082801DD012100E000210A44042801DD34
:10034000012100E000210A44022801DD012100E032
:1003500000211144012801DD012000E000200844B3
:10036000C01D0001702800D100207047F0B53B4E41
:100370003B4CB04203D1A66946F00406A661394E53
:10038000B04203D1A66946F00806A661364EB042D7
:1003900003D1A66946F01006A661344EB04203D1DF
:1003A000A66946F02006A661314EB04203D1A66987
:1003B00046F04006A66100240F2900DD0124692AC9
:1003C00001D0492A02D1032B00D10124032B00DDE7
:1003D0000124692A06D0492A04D06F2A02D04F2A64
:1003E00000D00124692A01D0492A00D100256F2AB2
:1003F00001D04F2A00D1012503260222082915DA4F
:10040000076802EB810206FA02FC27EA0C07076084
:10041000076893401F430760026889008E40B2431B
:10042000026002688D402A43026015E0083947687F
:1004300002EB810206FA02FC27EA0C0747604768D4
:1004400093401F434760426889008E40B243426038
:1004500042688D402A4342602046F0BD00080140BA
:1004600000100240000C0140001001400014014047
:10047000001801402DE9F0410D4604461146204682
:1004800000F0C0FA032707230626681E4FF0040C6D
:10049000012D01D0022D12D1218BC20007FA02F2E8
:1004A00091432183228B0CEBC00103FA01F822EA6D
:1004B00008022283228B06FA01F10A432283032DCC
:1004C00001D0042D0FD1A18BED1EEA009740B94356
:1004D000A183A28B0CEBC5018B409A43A283A28B14
:1004E0008E403243A283228C012101EB800301FA6A
:1004F00003F39A432284228C800081400A432284A1
:100500000648844205D1B4F8440040F40040A4F801
:100510004400A08D401C80B2BDE8F081002C014059
:100520002DE9F04104460D46164604EBC400C70011
:1005300039460B4800F066FA02236F220021094871
:10054000FFF714FF4FF4347203210748FFF792FFBF
:10055000324629460248FFF70DFEBDE8F081000053
:1005600000080040000C0140000400400148006801
:1005700000470000A000002070B53B4908883B4CB4
:1005800082073B4DA4F12006A4F1800018D50A880B
:1005900022F002020A800178012901D1006A804715
:1005A00028888107334802D40088208003E000882F
:1005B0002188401A3080288880F00200288070BD91
:1005C0000A88520718D50A8822F004020A80417866
:1005D000012901D1406A804728888106264802D433
:1005E0000088608003E000886188401A7080288855
:1005F00080F02000288070BD0A88120718D50A886C
:1006000022F008020A808178032901D1806A80479C
:1006100028888105194802D40088A08003E000885A
:10062000A188401AB080288880F40070288070BDAE
:100630000A88D206FBD50A8822F010020A80C17807
:10064000012901D1C06A8047288881040C4802D45E
:100650000088E08003E00088E188401AF080288864
:1006600080F40050288070BD102C014080000020D4
:10067000202C0140342C0140382C01403C2C0140FE
:10068000402C01400348018821F00101018002480B
:1006900000690047102C01400000002070B54FF0A9
:1006A0008045288AC10740480AD0A989C90707D0D0
:1006B000298A21F0010129824069BDE87040004784
:1006C000298A394C8A07384904F18804A4F12006A4
:1006D000497916D52A8A22F002022A82012901D1FB
:1006E000006B8047288C800702D4A88E208003E00E
:1006F000A88E2188401A3080288C80F0020028843F
:1007000070BD2A8A520716D52A8A22F004022A824C
:10071000012901D1406B8047288C800602D4288FA4
:10072000608003E0288F6188401A7080288C80F0F8
:100730002000288470BD298A090717D5298A21F04D
:10074000080129828179012901D1806B8047288C99
:10075000800502D4A88FA08003E0A88FA188401A4A
:10076000B080288C80F40070288470BD298AC90666
:10077000FBD5298A21F010012982C179012901D1F3
:10078000C06B8047288C800403D4B5F84000E0801B
:1007900004E0B5F84000E188401AF080288C80F42D
:1007A0000050288470BD00000000002070B543494F
:1007B0000888C20742480BD00A1F1288D20707D008
:1007C0000A8822F001020A808069BDE87040004773
:1007D0000A883B4C3B4D04F190049207A4F120069B
:1007E00018D50A8822F002020A80017A012901D173
:1007F000006C804728888107334802D40088208015
:1008000003E000882188401A3080288880F00200A8
:10081000288070BD0A88520718D50A8822F0040281
:100820000A80417A012901D1406C804728888106DD
:10083000264802D40088608003E000886188401A5E
:100840007080288880F02000288070BD0A881207F8
:1008500018D50A8822F008020A80817A012901D17C
:10086000806C804728888105194802D40088A080C0
:1008700003E00088A188401AB080288880F40070C6
:10088000288070BD0A88D206FBD50A8822F01002A3
:100890000A80C17A012901D1C06C8047288881046F
:1008A0000C4802D40088E08003E00088E188401A08
:1008B000F080288880F40050288070BD100400402B
:1008C00000000020200400403404004038040040B0
:1008D0003C0400404004004070B543490888C2070A
:1008E00042480BD00A1F1288D20707D00A8822F08C
:1008F00001020A80C069BDE8704000470A883B4C8D
:100900003B4D04F198049207A4F1200618D50A88FB
:1009100022F002020A80017B012901D1006D80478B
:1009200028888107334802D40088208003E00088AB
:100930002188401A3080288880F00200288070BD0D
:100940000A88520718D50A8822F004020A80417BDF
:10095000012901D1406D804728888106264802D4AC
:100960000088608003E000886188401A70802888D1
:1009700080F02000288070BD0A88120718D50A88E8
:1009800022F008020A80817B012901D1806D804715
:1009900028888105194802D40088A08003E00088D7
:1009A000A188401AB080288880F40070288070BD2B
:1009B0000A88D206FBD50A8822F010020A80C17B81
:1009C000012901D1C06D8047288881040C4802D4D8
:1009D0000088E08003E00088E188401AF0802888E1
:1009E00080F40050288070BD1008004000000020F6
:1009F0002008004034080040380800403C0800400F
:100A00004008004070B504460D46194919488C420B
:100A100003D1816941F400618161B4F1804F03D158
:100A2000C16941F00101C16113498C4203D1C1691F
:100A300041F00201C16111498C4203D1C16941F009
:100A40000401C161FFF742FC06462046FFF742FC65
:100A5000B6FBF0F0B5FBF0F0010C4A1CB0FBF2F075
:100A60002185401EA085A0841120208070BD00003B
:100A7000002C01400010024000040040000800402B
:100A800002E008C8121F08C1002AFAD17047704757
:100A9000002001E001C1121F002AFBD170470000B5
:100AA000FFF7DAFB034A00214FF47A70FFF738FDB5
:100AB00000BFFEE7B90A0008024908680130086073
:100AC00070470000A4000020E80A00080000002091
:100AD000A8000000800A0008900B0008A800002071
:100AE00000040000900A0008000000000000000060
:100AF00000000000000000000000000000000000F6
:100B000000000000000000000000000000000000E5
:100B100000000000000000000000000000000000D5
:100B200000000000000000000000000000000000C5
:100B300000000000000000000000000000000000B5
:100B400000000000000000000000000000000000A5
:100B50000000000000000000000000000000000095
:100B60000000000000000000000000000000000085
:100B70000000000000000000000000000000000075
:100B80000000000000000000000000000000000065
:04000005080000ED02
:00000001FF
